:100000000C9419040C945D040C945D040C945D0430
:100010000C945D040C945D040C945D040C945D04DC
:100020000C945D040C945D040C94E5150C94B716C7
:100030000C9402250C945D040C945D040C945D04F6
:100040000C945D040C946B050C945D040C945D049D
:100050000C945D040C946F250C945D040C945D0469
:100060000C945D040C945D040C945D040C945D048C
:100070000C945D040C945D040C945D040C945D047C
:100080000C94390B0C945D040C945D040C945D0489
:100090000C945D040C945D040C945D040C945D045C
:1000A0000C945D040C945D040C945D0400F001F06C
:1000B00002F003F004F005F006F007F000D100D0E4
:1000C000F1A3F1A200C000201E001F0020002100AB
:1000D0002200230024002500260027002D002E00EA
:1000E0002A002B0014001A000800150017001C003D
:1000F00018000C00120013002F00300031003900EE
:1001000004001600070009000A000B000D000E0095
:100110000F003300340000002800E10000001D0043
:100120001B00060019000500110010003600370002
:1001300038000000E100E000E300E2000000000001
:100140002C0000000000000000000A2050000B20DE
:100150004F0000201E001F0020002100220023006D
:1001600024002500260027002D002E002A002B0049
:1001700014001A000800150017001C0018000C00DD
:10018000120013002F00300031000B200400160075
:10019000070009000A000B000D000E000F003300DD
:1001A000340000002800E10000001D001B000600D4
:1001B000190005001100100036003700380000005B
:1001C000E500E000E200E300000000002C00000079
:1001D000000000000000E700E600E4000920350010
:1001E0003A003B003C003D003E003F004000410023
:1001F00042004300440045004C0001000C20520026
:100200000D20010049000100010001000100010072
:100210000100010001000100500051004F000100E9
:100220004A005000510052004F004A0001000000F7
:10023000010001000000AA00A90001000100010066
:1002400001000100010001004D0000005200AC005F
:10025000AE00AB0000000000010000000000000044
:1002600000005100500001004F000000000000009D
:10027000000000000000000000000000000000007E
:10028000000000000000000000005200000000001C
:10029000000000000000000000000000000000005E
:1002A000000000000000000000000000000000004E
:1002B000000000000000000000000000000000003E
:1002C0000000012002200320042005200620072032
:1002D00008200920000000000000000000000000CD
:1002E000000000000000000000000000000001000D
:1002F000000000000000011E021E01200220012358
:10030000022301230223011F021F01220222011FD7
:10031000021F011E021E0121022101E1011F021F15
:1003200002E101140214011402140137023701061C
:10033000020601120212011002100000000000006B
:100340000101010202030405050607090A0B0C0E50
:100350000F1112141517191B1D1F212325282A2CD4
:100360002F313436393B3E414346494C4F52555864
:100370005A5D6164676A6D707376797C7F83868964
:100380008C8F9295989B9EA2A5A7AAADB0B3B6B943
:10039000BCBEC1C4C6C9CBCED0D3D5D7DADCDEE073
:1003A000E2E4E6E8EAEBEDEEF0F1F3F4F5F6F8F965
:1003B000FAFAFBFCFDFDFEFEFEFFFFFFFFFFFFFF65
:1003C000FEFEFEFDFDFCFBFAFAF9F8F6F5F4F3F19A
:1003D000F0EEEDEBEAE8E6E4E2E0DEDCDAD7D5D3F6
:1003E000D0CECBC9C6C4C1BEBCB9B6B3B0ADAAA746
:1003F000A5A29E9B9895928F8C898683807C797626
:1004000073706D6A6764615D5A5855524F4C494626
:1004100043413E3B393634312F2C2A282523211FD6
:100420001D1B1917151412110F0E0C0B0A090706C4
:100430000505040302020101010000006432146496
:100440003214783C1E1E140A050000000001010150
:100450000202030405050607090A0B0C0E0F111210
:10046000141517191B1D1F212325282A2C2F313461
:1004700036393B3E414346494C4F5255585A5D61CF
:1004800064676A6D707376797C7F8386898C8F92BE
:1004900095989B9EA2A5A7AAADB0B3B6B9BCBEC1A4
:1004A000C4C6C9CBCED0D3D5D7DADCDEE0E2E4E6F1
:1004B000E8EAEBEDEEF0F1F3F4F5F6F8F9FAFAFB11
:1004C000FCFDFDFEFEFEFFFFFFFFFFFFFFFEFEFE49
:1004D000FDFDFCFBFAFAF9F8F6F5F4F3F1F0EEEDB8
:1004E000EBEAE8E6E4E2E0DEDCDAD7D5D3D0CECB47
:1004F000C9C6C4C1BEBCB9B6B3B0ADAAA7A5A29EB9
:100500009B9895928F8C898683807C797673706DA9
:100510006A6764615D5A5855524F4C494643413EA3
:100520003B393634312F2C2A282523211F1D1B1936
:1005300017151412110F0E0C0B0A090706050504F6
:100540000302020101010000000001010202020297
:10055000020203030303030303030303030303036D
:100560000404040404040404040404040505050547
:10057000050505050505060606060606060607071F
:1005800007070707070808080808080909090909EB
:10059000090A0A0A0A0A0B0B0B0B0B0C0C0C0C0CAD
:1005A0000D0D0D0D0E0E0E0E0F0F0F101010101161
:1005B0001111121212131313141414151516161602
:1005C000171718181919191A1A1B1B1C1C1D1D1E88
:1005D0001E1F2020212122232324242526262728EC
:1005E00028292A2B2B2C2D2E2F3030313233343525
:1005F000363738393A3B3C3D3E3F40414244454620
:1006000047494A4B4C4E4F5152535556585A5B5DD1
:100610005E6062636567696B6D6E70727476797B1C
:100620007D7F818486888B8D909295979A9D9FA2DD
:10063000A5A8ABAEB1B4B7BABEC1C4C8CBCFD3D6F0
:10064000DADEE2E6EAEEF2F8FF1A03470048003687
:10065000003000200052004700420020004D004FB3
:1006600000440000000C0353004100540041004EC0
:100670000000000403090409028D00050100A0FA2E
:1006800009040000010301010009211101000122F8
:100690003F000705810308000A0904010001030166
:1006A0000200092111010001224D00070582030803
:1006B000000A0904020001030000000921110100E1
:1006C000012236000705830308000A09040300021B
:1006D0000300000009211101000122200007058408
:1006E00003200001070504032000010904040001A0
:1006F00003000000092111010001223900070585CE
:10070000031000011201100100000008EDFE6060FE
:1007100003000102000105010906A101050719E016
:1007200029E71500250195087501810205081901C1
:10073000290595057501910295017503910105073C
:100740001900297715002501957875018102C006E9
:1007500031FF0974A1010975150025FF9520750861
:1007600081020976150025FF952075089102C005C4
:10077000010980A101850216010026B7001A0100B7
:100780002AB700751095018100C0050C0901A1016F
:100790008503160100269C021A01002A9C0275108E
:1007A00095018100C005010902A1010901A100050F
:1007B0000919012905150025019505750181029585
:1007C00001750381010501093009311581257F95E6
:1007D000027508810609381581257F950175088104
:1007E00006050C0A38021581257F950175088106DA
:1007F000C0C005010906A101050719E029E7150098
:10080000250195087501810295017508810105088A
:10081000190129059505750191029501750391014D
:100820000507190029FF150025FF950675088100A9
:10083000C00011241FBECFEFDAE0DEBFCDBF04B68B
:1008400003FE24C08091460290914702A091480285
:10085000B09149028730904BA740B04BB9F4109249
:10086000460210924702109248021092490214BEAA
:1008700084B7877F84BF88E10FB6F89480936000C7
:10088000109260000FBEE0E0F8E3099511E0A0E0EF
:10089000B1E0E2EDFBE502C005900D92A036B10794
:1008A000D9F712E0A0E6B1E001C01D92A634B1076D
:1008B000E1F70E9414130C94E72D0C940000CF93E1
:1008C000DF93EC01643009F444C050F46130D1F19D
:1008D000C0F0623009F467C0633009F072C06AC0CA
:1008E000673009F44BC030F46530D1F1663009F05F
:1008F00068C03DC0683009F448C0693009F061C083
:100900004BC00E945F2482729927982F80936001C8
:100910008A81882369F0992319F085E390E002C069
:1009200089E290E00E94DD23DF91CF910C949B241B
:10093000992319F085E390E002C089E290E00E94DB
:100940001E24F2CF8A818823E1F1DF91CF910C94AC
:10095000E2088A818823A9F1DF91CF910C942308C2
:100960008A81882371F1DF91CF910C9404088A81E8
:10097000882339F1DF91CF910C94E9078A8188238C
:1009800001F1DF91CF910C94CF078A818823C9F0C0
:10099000DF91CF910C94B4078A81882391F0DF9185
:1009A000CF910C949A078A81882359F0DF91CF91D7
:1009B0000C949E088A81882321F0DF91CF910C94BA
:1009C000A808DF91CF910895611107C0FC018281D1
:1009D000882331F026EF32E005C020E030E002C08D
:1009E0002BE333E0C9010895089508950E940F058F
:1009F0000E94AF0884EF94E0892B11F00C94F4046A
:100A0000089585EF94E0892B11F00C94F504089576
:100A100081FF02C0229A01C022982A9808958091ED
:100A20006401811116C081E080936401809181008E
:100A30008860809381008091810081608093810033
:100A40008FB7F89493E09093890090ED909388008D
:100A50008FBF08952E9A08952E980895EFE6F0E03E
:100A60008081826080830895EFE6F0E080818D7F51
:100A70008083089580936301269A81110C942E053A
:100A80000E9434050C942C0580916301813011F48F
:100A900085E503C0823021F482E8809362010895E5
:100AA000833011F48EEBF9CF843011F48FEFF5CF52
:100AB000853081F4809161018F5F80936101E82F1F
:100AC000F0E0E45CFC4FE491E09362018F3F11F4AD
:100AD0001092610108951F920F920FB60F92112488
:100AE0002F933F934F935F936F937F938F939F9336
:100AF000AF93BF93EF93FF93809165018F5F8093D6
:100B0000650190910001891306C0109265010E9451
:100B10002A050E9444059091650180916201981315
:100B200002C00E942C05FF91EF91BF91AF919F9160
:100B30008F917F916F915F914F913F912F910F9086
:100B40000FBE0F901F9018953EB1242F20952323A0
:100B50003EB1342B4FB7F894680F791F12C0FC01D7
:100B60005191CF01E8E03EB9000000C057FF2EB917
:100B7000550F000000C000C000C02EB900C0EA95AB
:100B800091F78617970759F74FBF08952DB1242B7A
:100B90002DB99B01220F331F260F371FB9010E9469
:100BA000A40587EC90E00197F1F700C000000895DC
:100BB00044E00C94C605F901818360834283089563
:100BC0007F928F929F92AF92BF92CF92DF92EF92DD
:100BD000FF920F931F93CF93DF935C01E42FF0E01C
:100BE000E75BFA4F44918FEF90E0FC01E61BF109BF
:100BF000E75BFA4FE491E09509F498C0E42EF12CFC
:100C00008E1B91098E9DE0018F9DD00D9E9DD00D74
:100C10001124CD2FDD0FDD0B0CE310E0C501B80171
:100C20000E94802D6C0162307105B9F140F46115AC
:100C3000710579F06130710509F07BC01AC064302C
:100C4000710509F44EC0C8F16530710509F071C035
:100C500059C0EC1AF108EA9CC001EB9C900DFA9C7B
:100C6000900D1124B8010E94802D7C2E760E9C2EB2
:100C70005BC0EC1AF108B8016C197D09E69EC00151
:100C8000E79E900DF69E900D1124B8010E94802DD4
:100C90008C2E860E9C2E742E4CC0EC1AF108EC9C07
:100CA000C001ED9C900DFC9C900D1124B8010E9498
:100CB000802D9C2E960E742E12C0EC1AF108B801ED
:100CC0006C197D09E69EC001E79E900DF69E900D81
:100CD0001124B8010E94802D7C2E760E942E8C2E2D
:100CE00028C0EC1AF108EC9CC001ED9C900DFC9C16
:100CF000900D1124B8010E94802D8C2E860E942E0A
:100D00007C2E17C0EC1AF108B8016C197D09E69E1B
:100D1000C001E79E900DF69E900D1124B8010E942F
:100D2000802D9C2E960E7C2E842E03C0942E742E25
:100D3000842E492D672D882DDF91CF911F910F9122
:100D4000FF90EF90DF90CF90BF90AF909F908F90EB
:100D50007F900C94DB0587E090E00C94B02DAB0104
:100D6000BC0187E090E00C94CA2D83E080931802C8
:100D7000E9E1F2E08081807884668F7780838CEC73
:100D800080931A0280931B026091180270911902DD
:100D900080911A0290911B020C94AF068091180268
:100DA00080FF06C068E070E080E292E00C94D80515
:100DB000E2E2F2E0DF0111971C92DF0112971C9230
:100DC0001082339682E0EA33F807A1F7EBCFE2E234
:100DD000F2E0DF0111978C93DF0112976C9340834F
:100DE000339692E0EA33F907A1F70C94CE06CF923E
:100DF000DF92EF92FF920F931F93CF93DF9300D078
:100E00001F92CDB7DEB7F82EC92ED62EE42E009154
:100E100018021091190220911A0230911B020093BE
:100E20001C0210931D0220931E0230931F0280911A
:100E3000180280FF1EC09E012F5F3F4F8F2D0E9422
:100E4000E00580911C02F0FA87F980931C02F69469
:100E500020911D0220782F29C0FA27F920931D0226
:100E6000D0921E02E0921F024B8169818A810E940A
:100E7000E7060F900F900F90DF91CF911F910F9188
:100E8000FF90EF90DF90CF9008950F931F93CF9333
:100E9000DF93C82F192F062FD42F8091180280FFBF
:100EA00044C0982F9E77923029F48C2F912F0E9466
:100EB000F7061AC0282F26952F73922F925C9F73E6
:100EC000943018F4D0911B020FC0265C2F73293088
:100ED00058F4881F8827881F10911902C12FCC0F42
:100EE000C82B17FB112710F980911802C0FB87F956
:100EF00080931802C6958091190280788C2B10FB84
:100F000087F98093190200931A02D0931B02609113
:100F100018027091190280911A0290911B02DF91C0
:100F2000CF911F910F910C94AF06DF91CF911F913C
:100F30000F91089540911B02842F90E0419714F087
:100F4000415101C040E080911802881F8827881F06
:100F500090911902292F220F97FB992790F9609100
:100F60001A02822B0C94450740911B02842F90E0BB
:100F70008F3E910514F44F5E01C04FEF809118022F
:100F8000881F8827881F90911902292F220F97FB0D
:100F9000992790F960911A02822B0C944507609171
:100FA0001A02862F90E0419714F0615101C060E071
:100FB00080911802881F8827881F90911902292F75
:100FC000220F97FB992790F940911B02822B0C94DA
:100FD000450760911A02862F90E08F3E910514F428
:100FE0006F5E01C06FEF80911802881F8827881FED
:100FF00090911902292F220F97FB992790F9409180
:101000001B02822B0C94450720911802221F2227D5
:10101000221F30911902432F440F842F822B37FB5C
:10102000992790F98A3091051CF4825A9E4F01C08D
:101030000A9768E671E00E94942D40911B0260912E
:101040001A020C94450720911802221F2227221F02
:1010500030911902432F440F842F822B37FB99279D
:1010600090F90A9668E671E00E94942D40911B0267
:1010700060911A020C9445078091670181110FC09D
:1010800081E08093670189E0809391008FB7F894A5
:1010900093E09093990090ED909398008FBF0895FE
:1010A000E1E7F0E08081826080830895E1E7F0E08D
:1010B00080818D7F808308959091180290FF3DC0BC
:1010C0009178811102C0926003C0883120F09E6245
:1010D0009093180205C08F73880F892B8093180294
:1010E000609118027091190280911A0290911B026E
:1010F0000E94AF0680911802982F9E77923019F4C3
:101100000E94560807C08695825C8F73863110F462
:101110000E94500880911802881F8827881F90918C
:101120001902292F220F97FB992790F940911B0252
:1011300060911A02822B0C94450708958091180241
:1011400086958F738F5F883108F081E00C945C087E
:101150008091180286958F7381500C945C08809161
:10116000050281608093050281E0809366010E9400
:101170004927811104C00E942A270E94B5060E94B7
:10118000AB06609318027093190280931A02909331
:101190001B026E7761F40E94B5060E94AB06609355
:1011A00018027093190280931A0290931B020E94F6
:1011B0003C088091180280FF04C086958F730C94C0
:1011C0005C08089580911802982F909590FB80F903
:1011D00080931802609118027091190280911A028E
:1011E00090911B020E94AF068091180280FF04C0FC
:1011F00086958F730C945C080E9456082FEF80E749
:1012000092E0215080409040E1F700C000000C9433
:10121000CE06CF93C82F80916801909169010E94FA
:101220004125EC2FF0E0EB5BFB4FE491F0E08E17F3
:101230009F0710F10E943425909369018093680103
:10124000E0916A01F0E0E75BFB4F44918091180266
:10125000881F8827881F90911902292F220F97FB3A
:10126000992790F960911A02822B0E94F7068091CB
:101270006A018F5F80936A01CF910895CF93C82F41
:1012800080916B0190916C010E944125EC2FF0E060
:10129000EE5BFB4FE491F0E08E179F07E8F00E94B1
:1012A000342590936C0180936B0140911B026091F7
:1012B0001A0280916D0190916E010E94F706809153
:1012C0006D0190916E01019668E671E00E94802D9B
:1012D00090936E0180936D01CF910895DF92EF920C
:1012E000FF920F931F93CF93DF93D82E80916F01BE
:1012F000909170010E944125ED2DE695F0E0EE5BA6
:10130000FB4FE491F0E08E179F0708F443C00E9462
:1013100034259093700180936F0100E010E0C0E0ED
:10132000D0E028E6E22EFF24F3949E01220F331F23
:101330002C0F3D1F205E3D4F8091710190917201F5
:10134000800F911FB7010E94802D40911B02609178
:101350001A020E94E0052196035D1F4FC830D10597
:1013600021F70E94CE062091710130917201D0FECA
:101370000BC0C901019668E671E00E94802D909330
:1013800072018093710106C02150310930937201BE
:1013900020937101DF91CF911F910F91FF90EF90FA
:1013A000DF9008958F929F92AF92BF92CF92DF927B
:1013B000EF92FF920F931F93CF93DF93C82F80FF7D
:1013C00003C099249A9402C0992493948091730144
:1013D000909174010E944125C695EC2FF0E0E15CEC
:1013E000FB4FE491F0E08E179F0708F469C00E945C
:1013F0003425909374018093730102E212E0C0E0FF
:10140000D0E057E0A52EB12CF80131971082F801F9
:1014100032971082F801108237E0C32ED12C812C34
:101420007E01EE0CFF1CEC0EFD1E80E292E0E80E49
:10143000F91E80917501880D87FD885F992787FDCA
:101440009095C817D907E9F420911B022C9DC00183
:101450002D9D900D1124B5010E94942D462F809151
:101460001802881F8827881F90911902592F550F3D
:1014700097FB992790F9970160911A02852B0E949A
:10148000E005890C91E0C91AD10899F621960D5F03
:101490001F4FC830D10509F0B7CF0E94CE0680910A
:1014A0007501E1E09E1206C0811102C08DE006C008
:1014B000815004C090E00196877099278093750150
:1014C000DF91CF911F910F91FF90EF90DF90CF9020
:1014D000BF90AF909F908F900895BF92CF92DF9270
:1014E000EF92FF920F931F93CF93DF93CDB7DEB7A9
:1014F00068970FB6F894DEBF0FBECDBF182F80914E
:101500007601909177010E944125E12FF0E0E45CA3
:10151000FB4FE491F0E08E179F0708F49AC00E94F9
:10152000342590937701809376017E0123E0E20ECB
:10153000F11C00E010E0F70131971082F7013297BB
:101540001082D7011C92B12C6801CC0CDD1CC00E9E
:10155000D11EE1E0F0E0EC0FFD1FCE0EDF1E9091FA
:10156000010180917801B99E800D112487FD03C08F
:1015700088301CF403C080E001C087E0992787FD14
:10158000909508171907A1F480911802881F8827E1
:10159000881F90911902592F550F97FB992790F9A1
:1015A000960140911B0260911A02852B0E94E00572
:1015B000B394F7E0BF12D3CF0F5F1F4F23E0E20ECB
:1015C000F11C0830110509F0B6CF62E272E08BE041
:1015D00090E09C0127703327AB0141505109F9017C
:1015E000EE0FFF1FE20FF31FA1E0B0E0AC0FBD1F35
:1015F000EA0FFB1F2181DA012C939B012250310954
:101600004081D9014C932281FB01208301966D5FBB
:101610007F4F83319105E9F60E94CE06909101013A
:1016200080917801913049F48A3F2CF489EF8093BE
:1016300078018FEF08C081500AC08F303CF08EE0F7
:101640008093780181E08093010103C08F5F8093D4
:10165000780168960FB6F894DEBF0FBECDBFDF915C
:10166000CF911F910F91FF90EF90DF90CF90BF909F
:1016700008951F920F920FB60F9211242F933F934C
:101680004F935F936F937F938F939F93AF93BF938A
:10169000EF93FF938091180286958F73982F925C39
:1016A0009F73943020F482500E94090923C0982F20
:1016B000965C9F73933020F486500E943E091AC0B6
:1016C000982F995C9F73963020F489500E946E0980
:1016D00011C0982F9F5C9F73963020F48F500E940A
:1016E000D20908C0982F955D9F73933018F48551E7
:1016F0000E946D0AFF91EF91BF91AF919F918F91E1
:101700007F916F915F914F913F912F910F900FBEFD
:101710000F901F9018958B3B910568F4883A9105BE
:1017200030F5853A9105C0F48430910598F401971D
:1017300009F06FC071C0803E910508F46AC0883E10
:10174000910540F09C01205F31092031310508F0FE
:1017500060C05CC09C01A1C0853A910509F45FC0DE
:10176000863A910509F45EC023E830E496C0883AD1
:10177000910509F45AC0893A910509F459C08A3A89
:10178000910509F458C08B3A910509F457C08C3A79
:10179000910509F456C08D3A910509F455C0803B76
:1017A000910509F454C08E3A910509F453C08F3A5B
:1017B000910509F452C0813B910509F451C0823B67
:1017C000910509F450C0833B910509F44FC0843B57
:1017D000910509F44EC0853B910509F44DC0863B47
:1017E000910509F44CC0873B910509F44BC0883B37
:1017F000910509F44AC0893B910509F449C08A3B27
:10180000910509F048C02AE236E447C09C013065E2
:1018100044C020E030E041C021E030E03EC021E89B
:1018200030E43BC022E830E438C022EE34E435C076
:1018300029EE34E432C02AEE34E42FC025EB34E440
:101840002CC026EB34E429C027EB34E426C02CEC72
:1018500034E423C02DEC34E420C023E835E41DC07B
:101860002AE835E41AC022E935E417C024E935E452
:1018700014C021E236E411C023E236E40EC024E2B3
:1018800036E40BC025E236E408C026E236E405C0A3
:1018900027E236E402C020E034E4C90108959EE066
:1018A000799FF001112496E4899FE00DF11D112428
:1018B000E60FF11DEE0FFF1FEA53FF4F2591349104
:1018C000C9010895880F991F845D9040FC012591FE
:1018D0003491C9010895880F991F84559F4FFC01C9
:1018E00025913491C90108950E944F0C9C019A954D
:1018F00081159F4110F4C9010895C90190528115C5
:10190000904128F4C9019F700E946B0C0895C90191
:1019100090538115904120F4C9019927906C089546
:10192000C9019054409728F4C9018F709927946D8C
:101930000895203180E4380719F480E091ED08958E
:10194000213190E4390719F480E090ED08952231B7
:1019500040E4340719F480E092ED0895233180E4E7
:10196000380719F480E093ED0895211590E53907C3
:1019700069F40E94B71E2FEF44E38CE021504040F1
:101980008040E1F700C000000C949425213090E5E0
:10199000390731F480910502816080930502089532
:1019A000C90190558115904108F062C0432F552719
:1019B0004F70552741305105F9F4C90174E0880F83
:1019C000991F7A95E1F788279370B901E3E0660FD4
:1019D000771FEA95E1F760767727862B972B9C682F
:1019E0002370332702C0440F551F2A95E2F74F7129
:1019F0005527842B952B08954230510529F4922FB9
:101A00008827816F906A089543305105B9F4C90160
:101A100053E0880F991F5A95E1F7807E97702370E5
:101A2000332741E050E002C0440F551F2A95E2F7EA
:101A30004F715527842B952B9C6808954430510590
:101A400049F5C90143E0880F991F4A95E1F7807E67
:101A500097702370332741E050E002C0440F551FB8
:101A60002A95E2F74F715527842B952B9A68089594
:101A7000C90190578115904120F4C9019F7090626F
:101A80000895C90190588115904120F4C9019F70B3
:101A9000906A0895203E3105E0F4203C310568F558
:101AA0002133310509F475C048F42932310509F4B0
:101AB0006BC02A32310509F07BC075C0293331056E
:101AC00001F122383105E9F02533310509F070C004
:101AD00051C0233E3105B1F140F4203E3105D1F033
:101AE000223E310509F064C01CC0263E310579F163
:101AF000273E310509F05CC038C0C9010E94620C64
:101B000008958091160280FD02C081FF51C080EED1
:101B100090E04FC08091160280FFF9CF89E390E0FA
:101B200048C08091160282FF0AC08091160284FF8D
:101B300003C080E090E03DC083EE90E03AC082EECA
:101B400090E037C08091160282FFEFCFF8CF8091EE
:101B5000160283FF07C08091160284FDEACF87EE4C
:101B600090E027C086EE90E024C08091160283FFAB
:101B7000F2CFF8CF8091160285FF03C089E290E092
:101B800018C085E390E015C08091160285FDF9CF5D
:101B9000F5CF8091160286FF03C08AE290E009C06B
:101BA00081E390E006C08091160286FDF9CFF5CF63
:101BB000C9010E948B0B08955F926F927F928F9262
:101BC0009F92AF92BF92CF92DF92EF92FF920F93CC
:101BD0001F93CF93DF93CDB7DEB72A970FB6F89454
:101BE000DEBF0FBECDBF9E012F5F3F4F4E018BE08A
:101BF000880E911C60E070E000E010E0E12CF12C18
:101C0000C12CD12CA12CB12C8AE0782E622E532E1F
:101C100041E050E0E7E1F1E0A62DB52D872D0190E0
:101C20000D928A95E1F7F901819191919F01FC0153
:101C3000E07FFF27E032F10559F48F709927FA0110
:101C400002C0EE0FFF1F8A95E2F7AE2ABF2A37C007
:101C5000E033F10559F48F709927FA0102C0EE0FB5
:101C6000FF1F8A95E2F7CE2ADF2A29C0E034F1056A
:101C700059F48F709927FA0102C0EE0FFF1F8A9561
:101C8000E2F7EE2AFF2A1BC0E035F10559F48F7008
:101C90009927FA0102C0EE0FFF1F8A95E2F70E2B7B
:101CA0001F2B0DC0E036F10551F48F709927FA0112
:101CB00002C0EE0FFF1F8A95E2F76E2B7F2B2815CF
:101CC000390509F0A7CF94B18A2D8095892384B96D
:101CD00085B18A2985B997B18C2D8095892387B9DB
:101CE00088B18C2988B99AB18E2D809589238AB9BB
:101CF0008BB18E298BB99DB1802F809589238DB9A9
:101D00008EB1802B8EB990B3862F8095892380BBAE
:101D100081B3862B81BB2A960FB6F894DEBF0FBE27
:101D2000CDBFDF91CF911F910F91FF90EF90DF908A
:101D3000CF90BF90AF909F908F907F906F905F906B
:101D400008955F926F927F928F929F92AF92BF920F
:101D5000CF92DF92EF92FF920F931F93CF93DF9377
:101D6000CDB7DEB76C970FB6F894DEBF0FBECDBF10
:101D700085B7806885BF85B7806885BF0E94DC0D08
:101D80009E012F5F3F4F4E018DE1880E911C60E058
:101D900070E000E010E0E12CF12CC12CD12CA12C42
:101DA000B12C9CE1792E622E532E41E050E0E1E20D
:101DB000F1E0A62DB52D872D01900D928A95E1F7C2
:101DC000F901819191919F01FC01E07FFF27E032B1
:101DD000F10559F48F709927FA0102C0EE0FFF1F29
:101DE0008A95E2F7AE2ABF2A37C0E033F10559F4ED
:101DF0008F709927FA0102C0EE0FFF1F8A95E2F754
:101E0000CE2ADF2A29C0E034F10559F48F709927D2
:101E1000FA0102C0EE0FFF1F8A95E2F7EE2AFF2AB1
:101E20001BC0E035F10559F48F709927FA0102C003
:101E3000EE0FFF1F8A95E2F70E2B1F2B0DC0E03629
:101E4000F10551F48F709927FA0102C0EE0FFF1FC0
:101E50008A95E2F76E2B7F2B2815390509F0A7CF5D
:101E600094B18A2D8095892384B985B18A2985B951
:101E700097B18C2D8095892387B988B18C2988B931
:101E80009AB18E2D809589238AB98BB18E298BB911
:101E90009DB1802F809589238DB98EB1802B8EB90D
:101EA00090B3862F8095892380BB81B3862B81BB1D
:101EB00010927A011092790110928401109283019C
:101EC00010927C0110927B01109286011092850184
:101ED00010927E0110927D0110928801109287016C
:101EE0001092800110927F0110928A011092890154
:101EF000109282011092810110928C0110928B013C
:101F000086EF94E0892BB9F06C960FB6F894DEBF9B
:101F10000FBECDBFDF91CF911F910F91FF90EF903A
:101F2000DF90CF90BF90AF909F908F907F906F90F9
:101F30005F900C94F6046C960FB6F894DEBF0FBE5B
:101F4000CDBFDF91CF911F910F91FF90EF90DF9068
:101F5000CF90BF90AF909F908F907F906F905F9049
:101F600008955F926F927F928F929F92AF92BF92ED
:101F7000CF92DF92EF92FF920F931F93CF93DF9355
:101F8000CDB7DEB7A6970FB6F894DEBF0FBECDBFB4
:101F90007E014DE1E40EF11C23E8C22E21E0D22E99
:101FA0005E0157E2A50EB11C3AE0532E470101E055
:101FB00010E04CE1642E55E0752EE7E1F1E0D4012C
:101FC000852D01900D928A95E1F7F701819191910C
:101FD0007F019C01207F33272032310589F424B111
:101FE0008F709927A80102C0440F551F8A95E2F708
:101FF000CA01242B24B995B18095892385B94FC096
:102000002033310589F427B18F709927F80102C078
:10201000EE0FFF1F8A95E2F7CF012E2B27B998B15B
:102020008095892388B93BC02034310589F42AB1D1
:102030008F709927A80102C0440F551F8A95E2F7B7
:10204000CA01242B2AB99BB1809589238BB927C05B
:102050002035310589F42DB18F709927F80102C020
:10206000EE0FFF1F8A95E2F7CF012E2B2DB99EB1FF
:10207000809589238EB913C02036310581F420B3B1
:102080008F709927A80102C0440F551F8A95E2F767
:10209000CA01242B20BB91B38095892381BB50EAD0
:1020A0005A95F1F7BE016F5F7F4F80E090E020E02E
:1020B00030E0E1E2F1E0DE011196462D01900D9253
:1020C0004A95E1F7FB0141915191BF01FA01E07F8F
:1020D000FF27E032F10511F4E3B113C0E033F1055D
:1020E00011F4E6B10EC0E034F10511F4E9B109C014
:1020F000E035F10511F4ECB104C0E036F105B9F4B6
:10210000EFB1F0E04F70552702C0F595E7954A957D
:10211000E2F7E0FD08C0A801022E02C0440F551FDF
:102120000A94E2F702C040E050E0842B952B2F5F29
:102130003F4F2E30310509F0BCCFF60120813181AF
:102140002817390721F091838083709202010E9441
:10215000DC0DF2E0CF0ED11CEA14FB0409F02DCF08
:10216000809102018823A1F181508093020188238C
:1021700039F08FE99FE00197F1F700C0000028C017
:10218000809183019091840190937A0180937901E9
:10219000809185019091860190937C0180937B01D1
:1021A000809187019091880190937E0180937D01B9
:1021B0008091890190918A019093800180937F01A1
:1021C00080918B0190918C01909382018093810189
:1021D00081E095E0892B11F00E94010581E0A6962F
:1021E0000FB6F894DEBF0FBECDBFDF91CF911F9128
:1021F0000F91FF90EF90DF90CF90BF90AF909F90A6
:102200008F907F906F905F900895E82FF0E0EE0F31
:10221000FF1FE758FE4F80819181089508958091B6
:102220009E010895CF93DF9300D01F92CDB7DEB704
:1022300020913C02243021F523E029839B838A836B
:102240002093E9008FEF06C095ED9A95F1F7000015
:10225000882329F09091E800815095FFF5CF809177
:10226000E80085FF0DC040E050E063E070E0CE0183
:1022700001960E94CA138091E8008E778093E8004F
:102280000F900F900F90DF91CF910895CF93DF9330
:1022900000D01F92CDB7DEB720913C02243029F543
:1022A00022E029839B838A8383E08093E9008FEF78
:1022B00006C095ED9A95F1F70000882329F09091DA
:1022C000E800815095FFF5CF8091E80085FF0DC0B3
:1022D00040E050E063E070E0CE0101960E94CA1336
:1022E0008091E8008E778093E8000F900F900F9018
:1022F000DF91CF91089520913C022430F9F422E03F
:102300002093E9002FEF06C035ED3A95F1F7000074
:10231000222329F03091E800215035FFF5CF20919C
:10232000E80025FF0BC040E050E065E070E00E944F
:10233000CA138091E8008E778093E8000895CF93C8
:10234000DF93EC0180913C02843009F049C0809118
:102350000D018823E9F080910E018823C9F085E002
:102360008093E9008FEF06C095E19A95F1F70000A0
:10237000882329F09091E800815095FFF5CF809156
:10238000E80085FF2DC040E050E060E170E018C03B
:1023900081E08093E9008FEF06C095ED9A95F1F703
:1023A0000000882329F09091E800815095FFF5CF37
:1023B0008091E80085FF14C040E050E068E070E0E4
:1023C000CE010E94CA138091E8008E778093E800C6
:1023D00080E1FE01AEE8B1E001900D928A95E1F74F
:1023E000DF91CF91089580913B02811109C00E9435
:1023F0006A150E94C7158091E20084608093E20014
:10240000089510923B020895089508950C94FE24B7
:1024100080919F018F5F80939F0162E30E94742DE2
:10242000911135C010929F018091A001882379F10C
:1024300080913C02843049F58091E9008F70909141
:10244000EC0090FF02C090E801C090E0982B84E07F
:102450008093E9008091EB0080FF14C08091EE0032
:1024600087FD03C00FC01092F1008091E80085FD48
:10247000FACF8091E80080FF05C08091E8008E7758
:102480008093E8009F709093E9001092A001089556
:1024900042E061EC81E00E94E01442E061EC82E005
:1024A0000E94E01442E061EC83E00E94E01442E20A
:1024B00061EC84E00E94E01442E161EC85E00C9460
:1024C000E01480913E02833009F456C030F481302C
:1024D00071F0823009F0A7C08EC08A3009F47BC049
:1024E0008B3009F461C0893009F09DC020C0809113
:1024F0003D02813A09F097C08091E800877F809380
:10250000E8008091410290914202892B21F060E025
:1025100080E090E003C060E18EE891E070E00E940E
:1025200019148091E8008B778093E80008958091DA
:102530003D02813209F077C08091410290914202C0
:10254000009719F0049709F06EC08091E800877F2A
:102550008093E80005C080913C02882309F463C0A1
:102560008091E80082FFF7CF8091F10080939E0177
:102570008091E8008B7753C080913D02813A09F049
:1025800052C08091410290914202892B09F04BC0C8
:102590008091E800877F8093E8008091E80080FFC9
:1025A000FCCF80910D0136C080913D028132D9F57A
:1025B0008091410290914202892BA9F58091E80017
:1025C000877F8093E8000E94171580913F028093D7
:1025D0000D010C94B71E80913D02813221F580914E
:1025E000E800877F8093E8000E94171580914002E1
:1025F00080938D01089580913D02813AA1F48091EC
:10260000E800877F8093E8008091E80080FFFCCF9E
:1026100080918D018093F1008091E8008E77809306
:10262000E8000C941715089584B7877F84BF88E16C
:102630000FB6F89480936000109260000FBE90E097
:1026400080E80FB6F89480936100909361000FBE0C
:102650000E94D5180E946A150E94C7158091E20059
:1026600084608093E20078940E9464180E94D718D6
:1026700083E091E00E9481180BC00E94C1248091E8
:102680003A02882329F00E94E92481110E94B413A0
:1026900080913C02853089F30E94E118F9CF292FFF
:1026A000332723303105B1F04CF42130310509F4E2
:1026B0004DC02230310509F04EC007C0213231052E
:1026C00041F12232310591F146C0EDE8F0E087E7B3
:1026D00096E045C099278130910569F082309105D7
:1026E00089F0892B09F037C0E3E7F6E0E491F0E0E8
:1026F00083E796E034C0E5E6F6E0E491F0E085E6B5
:1027000096E02DC0E9E4F6E0E491F0E089E496E09B
:1027100026C0653000F5E62FF0E0EE0FFF1FE35C0A
:10272000FE4F80819181E9E0F0E019C0653098F4B6
:10273000E62FF0E0DF01AA0FBB1FA95BBE4F8D9112
:102740009C91EF5AFE4FE081F0E009C0E2E1F0E039
:1027500084E097E004C0E0E0F0E080E090E0DA019F
:102760008D939C93CF01089580E189BD82E189BD5D
:1027700009B400FEFDCF8091D8008F7D8093D800F2
:102780008091E00082608093E0008091E00081FD14
:10279000FCCF0895BF92CF92DF92EF92FF920F93FA
:1027A0001F93CF93DF937C018B01EA010E943815C0
:1027B000B82E811133C0209731F028813981021B56
:1027C000130BE20EF31EC12CD12C23C08091E80024
:1027D00085FD15C08091E8008E778093E8002097F2
:1027E00049F0888199818C0D9D1D9983888325E00E
:1027F000B22E14C00E943815882359F00EC0F7017C
:1028000081917F018093F10001501109FFEFCF1AF0
:10281000DF0A01151105D1F601C0B82E8B2DDF910D
:10282000CF911F910F91FF90EF90DF90CF90BF90CD
:10283000089540914302509144024617570748F0CB
:102840006115710539F44091E8004E774093E80036
:1028500001C0BA01FC0140E033C080913C028823F2
:1028600009F444C0853009F443C08091E80083FD39
:1028700041C08091E80082FD33C08091E80080FF74
:102880001FC09091F3008091F200392F20E0A90140
:10289000482BCA0106C041914093F1006150710973
:1028A00001966115710519F088309105A0F341E09A
:1028B000089709F040E08091E8008E778093E80067
:1028C0006115710551F64111C8CF0AC080913C02D3
:1028D000882361F0853061F08091E80083FD0AC0B3
:1028E0008091E80082FFF2CF80E0089582E00895B1
:1028F00083E0089581E0089540914302509144029D
:102900004617570748F06115710539F44091E80002
:102910004E774093E80001C0BA01FC0140E034C0AA
:1029200080913C02882309F445C0853009F444C0F5
:102930008091E80083FD42C08091E80082FD34C0B0
:102940008091E80080FF20C09091F3008091F20018
:10295000392F20E0A901482BCA0107C044914093B8
:10296000F10031966150710901966115710519F0F8
:102970008830910598F341E0089709F040E0809194
:10298000E8008E778093E8006115710549F64111E2
:10299000C7CF0AC080913C02882361F0853061F086
:1029A0008091E80083FD0AC08091E80082FFF2CFA9
:1029B00080E0089582E0089583E0089581E008951D
:1029C000982F2CC09093E900981739F07091EC0083
:1029D0002091ED005091F00003C0242F762F50E09D
:1029E00021FD02C09F5F1AC03091EB003E7F309303
:1029F000EB003091ED003D7F3093ED003091EB0026
:102A000031603093EB007093EC002093ED00509315
:102A1000F0002091EE0027FDE5CF07C0973090F23F
:102A20008F708093E90081E0089580E0089580919F
:102A30003D0287FD05C08091E80080FF0EC012C0F6
:102A40008091E80082FD05C080913C028111F8CFA1
:102A500008958091E8008B7708C080913C02811135
:102A6000EACF08958091E8008E778093E80008957A
:102A70008091E4009091E50045E62091EC0020FD76
:102A80001FC023C020913C02222391F0253091F0F9
:102A90002091EB0025FD10C02091E4003091E5006D
:102AA0002817390751F34150C90139F784E00895D7
:102AB00082E0089583E0089581E0089580E008951C
:102AC0002091E80020FFDECFF9CF2091E80022FF1F
:102AD000D9CFF4CF0E94D8150E94E015E0EEF0E0C7
:102AE000808181608083E8EDF0E080818F77808352
:102AF00019BCA7EDB0E08C918E7F8C9380818F7E86
:102B0000808310923B0208950F931F93CF93DF931E
:102B10000E94D8150E94E015C8EDD0E088818F771B
:102B2000888388818068888388818F7D888319BCA9
:102B300010923C021092380210923A02109239021E
:102B400000EE10E0F80180818B7F808388818160B6
:102B5000888342E060E080E00E94E014E1EEF0E073
:102B600080818E7F8083E2EEF0E0808181608083CF
:102B7000808188608083F80180818E7F8083888156
:102B800080618883DF91CF911F910F910895E8EDC7
:102B9000F0E080818F7E8083E7EDF0E080818160CE
:102BA000808384E082BF81E080933B020C94841593
:102BB000E8EDF0E080818E7F80831092E20008953E
:102BC0001092DA001092E10008951F920F920FB652
:102BD0000F9211242F933F934F935F936F937F93A3
:102BE0008F939F93AF93BF93EF93FF938091E100F7
:102BF00082FF0BC08091E20082FF07C08091E1005C
:102C00008B7F8093E1000E9408128091DA0080FFA0
:102C10001FC08091D80080FF1BC08091DA008E7F9A
:102C20008093DA008091D90080FF0DC080E189BDDA
:102C300082E189BD09B400FEFDCF81E080933C02B2
:102C40000E94F31105C019BC10923C020E940112AF
:102C50008091E10080FF19C08091E20080FF15C0E3
:102C60008091E2008E7F8093E2008091E20080619B
:102C70008093E2008091D80080628093D80019BCD4
:102C800085E080933C020E9405128091E10084FF60
:102C900030C08091E20084FF2CC080E189BD82E1D8
:102CA00089BD09B400FEFDCF8091D8008F7D80934F
:102CB000D8008091E1008F7E8093E1008091E20056
:102CC0008F7E8093E2008091E20081608093E20039
:102CD00080913802882311F084E007C08091E300DE
:102CE00087FF02C083E001C081E080933C020E9424
:102CF00006128091E10083FF29C08091E20083FFEA
:102D000025C08091E100877F8093E10082E080937D
:102D10003C02109238028091E1008E7F8093E100A6
:102D20008091E2008E7F8093E2008091E2008061DA
:102D30008093E20042E060E080E00E94E014809135
:102D4000F00088608093F0000E940412FF91EF91E0
:102D5000BF91AF919F918F917F916F915F914F91B3
:102D60003F912F910F900FBE0F901F9018951F92BB
:102D70000F920FB60F9211242F933F934F935F93AF
:102D80006F937F938F939F93AF93BF93CF93EF9363
:102D9000FF938091E9008F709091EC0090FF02C04A
:102DA00090E801C090E0C92FC82B1092E9008091F3
:102DB000F000877F8093F00078940E94FB161092B9
:102DC000E9008091F00088608093F000CF70C0939C
:102DD000E900FF91EF91CF91BF91AF919F918F91BA
:102DE0007F916F915F914F913F912F910F900FBE07
:102DF0000F901F9018951F93CF93DF93CDB7DEB739
:102E0000AC970FB6F894DEBF0FBECDBFEDE3F2E096
:102E10008091F100819322E0E534F207C9F70E9426
:102E200061128091E80083FF37C180913D0290914B
:102E30003E02953009F488C038F49130B1F170F059
:102E4000933009F029C131C0983009F4F8C09930A5
:102E500009F404C1963009F01FC19DC0803821F0EB
:102E6000823809F019C108C08091390290913A0264
:102E7000992389F082600FC08091410290914202B3
:102E80008F7099278093E9008091EB0085FB88275C
:102E900080F91092E9009091E800977F9093E80004
:102EA0008093F1001092F100D5C0882319F0823090
:102EB00009F0F2C08F7121F0823009F0EDC00BC033
:102EC00080913F02813009F0E7C0933009F080E043
:102ED00080933A022FC080913F0281112BC08091D4
:102EE0004102909142028F709927009709F4D4C053
:102EF0008093E9002091EB0020FF1CC020913E024E
:102F0000233021F48091EB00806212C09091EB009D
:102F100090619093EB0021E030E001C0220F8A9590
:102F2000EAF72093EA001092EA008091EB008860B3
:102F30008093EB001092E9008091E800877F8093F6
:102F4000E8000E941715A8C08111A6C080913F0219
:102F5000909140028F779927182F9091E3009078F5
:102F6000982B9093E3008091E800877F8093E8009E
:102F70000E9417158091E80080FFFCCF8091E3004C
:102F800080688093E300112311F083E001C082E0A8
:102F900080933C0281C08058823008F07DC08091CF
:102FA0003F02909140028C3D23E0920779F583E047
:102FB0008A838AE289834FB7F894DE01139620E072
:102FC0003EE051E2E32FF0E050935700E49120FF00
:102FD00003C0E295EF703F5FEF708E2F90E0EA3014
:102FE00010F0C79601C0C0968D939D932F5F24313A
:102FF00049F74FBF8091E800877F8093E8006AE23D
:1030000070E0CE0101960E94191413C0AE01455D17
:103010005F4F609141020E944F130097E9F12091A8
:10302000E800277F2093E800BC018BA59CA50E94A7
:103030007C148091E8008B778093E8002DC0803865
:1030400059F58091E800877F8093E80080913802ED
:103050008093F1008091E8008E7771CF81111CC0C0
:1030600090913F029230C0F48091E800877F809376
:10307000E800909338020E94171580913802811160
:1030800004C08091E30087FF02C084E001C081E0BA
:1030900080933C020E9448128091E80083FF0AC09E
:1030A0008091E800877F8093E8008091EB00806248
:1030B0008093EB00AC960FB6F894DEBF0FBECDBF89
:1030C000DF91CF911F910895CF9380913C02882387
:1030D000B1F08091E9008F709091EC0090FF02C0F8
:1030E00090E801C090E0C92FC82B1092E9008091B0
:1030F000E80083FD0E94FB16CF70C093E900CF91DA
:1031000008959093A2018093A1010895E091A101F7
:10311000F091A201309721F00190F081E02D099407
:1031200080E00895E091A101F091A201309721F093
:103130000280F381E02D09940895E091A101F091BE
:10314000A201309721F00480F581E02D09940895C3
:103150002091A3013091A4018217930771F09093FD
:10316000A4018093A301E091A101F091A201309705
:1031700021F00680F781E02D099408952091A501A2
:103180003091A6018217930771F09093A601809366
:10319000A501E091A101F091A201309721F00084F6
:1031A000F185E02D0994089508950C94D4180E9497
:1031B0002B250E94A10E0E94FF250C94BB2B0C9482
:1031C00008055F926F927F928F929F92AF92BF920B
:1031D000CF92DF92EF92FF920F931F93CF93DF93E3
:1031E000CDB7DEB72A970FB6F894DEBF0FBECDBFBE
:1031F0000E94B10F97EAC92E91E0D92E00E010E0AD
:10320000AA24A394B12C502E802F0E9405113C01BA
:10321000F601E190F1906F01E826F926E114F1043E
:1032200031F40F5F1F4F0530110569F73AC08091E7
:10323000050281FD0E940E1120E030E04501022EC2
:1032400002C0880C991C0A94E2F7C4018E219F21C8
:10325000892B09F12E835F826820792081E067281D
:1032600009F480E088870E9434258160782F9A874E
:1032700089874E815F8168858A850E949A19F80145
:10328000EE0FFF1FE955FE4F80819181882599251A
:103290009183808316C02F5F3F4F2E30310571F62A
:1032A000C0CF8FEF89838A831B820E94342581607F
:1032B000782F9D838C8349815A816B818D810E94F7
:1032C0009A190E94F3281091B1010E9486181817CC
:1032D000D9F00E9486188093B1012A960FB6F8940F
:1032E000DEBF0FBECDBFDF91CF911F910F91FF9039
:1032F000EF90DF90CF90BF90AF909F908F907F9096
:103300006F905F900C94DF182A960FB6F894DEBF8A
:103310000FBECDBFDF91CF911F910F91FF90EF9026
:10332000DF90CF90BF90AF909F908F907F906F90E5
:103330005F900895CF93DF93CDB7DEB72B970FB68D
:10334000F894DEBF0FBECDBF4F83588769877A8759
:103350008B87DE01119686E0FD0111928A95E9F7CF
:1033600085E0FE01379601900D928A95E1F749813B
:103370005A816B817C818D819E810E9476212B9662
:103380000FB6F894DEBF0FBECDBFDF91CF91089589
:10339000CF93C82F882309F4C1C0823859F40E9402
:1033A000861881FDBBC089E30E94DD230E949B2417
:1033B00089E30CC0833879F40E94861880FDAEC082
:1033C00083E50E94DD230E949B2483E50E941E2446
:1033D000CF910C949B24843859F40E94861882FD66
:1033E0009DC087E40E94DD230E949B2487E4EECFEA
:1033F0008450813A48F48C2F0E941D2B81118EC07D
:103400008C2F0E94DD23E4CF8C2F805E883050F417
:10341000C77081E090E001C0880FCA95EAF70E946A
:103420006224D6CF8C2F855A833078F4C53A29F0A0
:10343000C63A31F482E890E005C081E890E002C02D
:1034400083E890E0CF910C94A8188C2F885A833190
:1034500008F064C0C83A39F1C93A41F1CA3A49F1B1
:10346000CB3A51F1CC3A59F1CD3A61F1C03B69F117
:10347000CE3A71F1CF3A79F1C13B81F1C23B89F18A
:10348000C33B91F1C43B99F1C53BA1F1C63BA9F106
:10349000C73BB1F1C83BB9F1C93BC1F1CA3BC9F562
:1034A0008AE292E038C082EE90E035C089EE90E08A
:1034B00032C08AEE90E02FC085EB90E02CC086EB06
:1034C00090E029C087EB90E026C08CEC90E023C010
:1034D0008DEC90E020C083E891E01DC08AE891E087
:1034E0001AC082E991E017C084E991E014C081E23A
:1034F00092E011C083E292E00EC084E292E00BC041
:1035000085E292E008C086E292E005C087E292E0A0
:1035100002C080E090E0CF910C94BE18CF91089546
:10352000882309F44DC0823859F40E94861881FF1F
:1035300047C089E30E94DD230E949B2489E30CC0DD
:10354000833871F40E94861880FF3AC083E50E9498
:10355000DD230E949B2483E50E941E240C949B245F
:10356000843859F40E94861882FF2AC087E40E949A
:10357000DD230E949B2487E4EFCF982F9450913A4B
:1035800008F4EACF982F905E983058F4282F2770CF
:1035900081E090E001C0880F2A95EAF70E94682434
:1035A000DDCF982F955A933020F480E090E00C9472
:1035B000A818885A833120F480E090E00C94BE185B
:1035C0000895882321F00E9462240C949B2408957E
:1035D000882321F00E9468240C949B240895BF92B4
:1035E000CF92DF92EF92FF920F931F93CF93DF93CF
:1035F000CDB7DEB727970FB6F894DEBF0FBECDBFAD
:103600008C0185E0F801DE01119601900D928A95FA
:10361000E1F7F80130812181F280558152955F7088
:1036200083819481892B39F02F3F41F481E090E030
:103630003F3F31F003C081E090E002C080E090E0C5
:1036400080FD73C339832A8389819A815E830E94B6
:103650009A23B92E8F830E9499230E94C1222B2D79
:1036600022952F7030E05E816F812530310509F49D
:10367000E6C06CF4243031050CF0A2C04B2D407F25
:103680008B2D8F70223031050CF045C017C02C30C7
:1036900031054CF42A3031050CF0E7C128303105F2
:1036A00009F043C3E5C02D30310509F4BAC20CF46A
:1036B000A2C22F30310509F038C323C3182F41119E
:1036C00001C002C01295107FFF2059F0112309F4A8
:1036D0006BC2812F6F830E9472240E949B246F8192
:1036E00063C2862F0E94901A112309F41EC3812FF2
:1036F0000E94782427960FB6F894DEBF0FBECDBF88
:10370000DF91CF911F910F91FF90EF90DF90CF90BD
:10371000BF900C949B24403211F08295807F6623E9
:1037200019F0613071F523C0FF20B1F0511101C0D3
:1037300032C0513081F527960FB6F894DEBF0FBE28
:10374000CDBFDF91CF911F910F91FF90EF90DF9050
:10375000CF90BF900C948224511101C003C051300E
:1037600009F4E3C28E830E9485248E819AC1FF20D2
:1037700021F0563008F0D9C20EC0553008F0D5C23D
:1037800090C1FF20C9F0552331F0F801958190FFD9
:103790000BC29F70958327960FB6F894DEBF0FBEBD
:1037A000CDBFDF91CF911F910F91FF90EF90DF90F0
:1037B000CF90BF900C94E11A552309F472C109C24D
:1037C0002B2D26952695237030E02115310529F003
:1037D0002130310509F0A9C219C0FF2021F0862F40
:1037E0009B2D937002C080E090E027960FB6F8946E
:1037F000DEBF0FBECDBFDF91CF911F910F91FF9024
:10380000EF90DF90CF90BF900C94A818FF2021F08C
:10381000862F9B2D937002C080E090E027960FB614
:10382000F894DEBF0FBECDBFDF91CF911F910F91F6
:10383000FF90EF90DF90CF90BF900C94BE18862F32
:10384000FF2019F00E94F92702C00E9461282796E4
:103850000FB6F894DEBF0FBECDBFDF91CF911F91A1
:103860000F91FF90EF90DF90CF90BF900C94E828DD
:103870008B2D837009F079C0F11057C2262F229545
:1038800026952770220F220F862F8F70C82ED12CDD
:10389000E12CF12C022E04C0CC0CDD1CEE1CFF1C14
:1038A0000A94D2F764FF10C06FE070E080E090E00F
:1038B00004C0660F771F881F991F2A95D2F760955D
:1038C00070958095909503C060E070E0CB012B2D42
:1038D000269526952370422F50E042305105D9F0AD
:1038E0004330510569F16C297D298E299F2941308A
:1038F000510551F127960FB6F894DEBF0FBECDBF2C
:10390000DF91CF911F910F91FF90EF90DF90CF90BB
:10391000BF900C94D6226C297D298E299F29279649
:103920000FB6F894DEBF0FBECDBFDF91CF911F91D0
:103930000F91FF90EF90DF90CF90BF900C94E82212
:103940000E94D622C701B60127960FB6F894DEBFB3
:103950000FBECDBFDF91CF911F910F91FF90EF90E0
:10396000DF90CF90BF900C94C422FF2019F08B2DD4
:10397000817001C08695882309F4D7C1262F22952E
:1039800026952770220F220F862F8F70C82ED12CDC
:10399000E12CF12C022E04C0CC0CDD1CEE1CFF1C13
:1039A0000A94D2F764FF10C06FE070E080E090E00E
:1039B00004C0660F771F881F991F2A95D2F760955C
:1039C00070958095909503C060E070E0CB012B2D41
:1039D000269526952370422F50E042305105D9F0AC
:1039E0004330510569F16C297D298E299F29413089
:1039F000510551F127960FB6F894DEBF0FBECDBF2B
:103A0000DF91CF911F910F91FF90EF90DF90CF90BA
:103A1000BF900C9475236C297D298E299F292796A8
:103A20000FB6F894DEBF0FBECDBFDF91CF911F91CF
:103A30000F91FF90EF90DF90CF90BF900C94872371
:103A40000E947523C701B60127960FB6F894DEBF12
:103A50000FBECDBFDF91CF911F910F91FF90EF90DF
:103A6000DF90CF90BF900C946323603F59F120F416
:103A7000603E08F494C008C0623F09F467C0F0F1EA
:103A8000633F09F08CC065C0162F1F708B2D8F719E
:103A9000FF2021F00E940E23812F7DCE0E9429233A
:103AA000812F27960FB6F894DEBF0FBECDBFDF91F2
:103AB000CF911F910F91FF90EF90DF90CF90BF902B
:103AC0000C94E81AFF20B1F0553008F02EC18B2D70
:103AD0008F7127960FB6F894DEBF0FBECDBFDF9172
:103AE000CF911F910F91FF90EF90DF90CF90BF90FB
:103AF0000C944823563008F018C1E9CFFF2099F004
:103B00008B2D8F7127960FB6F894DEBF0FBECDBFF9
:103B1000DF91CF911F910F91FF90EF90DF90CF90A9
:103B2000BF900C940E238B2D8F7127960FB6F894AF
:103B3000DEBF0FBECDBFDF91CF911F910F91FF90E0
:103B4000EF90DF90CF90BF900C942923F110EBCF32
:103B5000D7CFFF2099F08B2D8F7127960FB6F89451
:103B6000DEBF0FBECDBFDF91CF911F910F91FF90B0
:103B7000EF90DF90CF90BF900C94FF2227960FB666
:103B8000F894DEBF0FBECDBFDF91CF911F910F9193
:103B9000FF90EF90DF90CF90BF900C94FA22FF201F
:103BA000A9F0552309F4ACCF862F27960FB6F894C9
:103BB000DEBF0FBECDBFDF91CF911F910F91FF9060
:103BC000EF90DF90CF90BF900C94C819552309F463
:103BD000AACF862F27960FB6F894DEBF0FBECDBFB3
:103BE000DF91CF911F910F91FF90EF90DF90CF90D9
:103BF000BF900C94901A4B2D4F70C8010E94E404A2
:103C000027960FB6F894DEBF0FBECDBFDF91CF91E0
:103C10001F910F91FF90EF90DF90CF90BF900C9489
:103C20002C22F11082C09B2D9F70492F50E0423012
:103C3000510599F144F44115510569F041305105A0
:103C400009F073C019C043305105C1F1443051052A
:103C500009F06BC044C027960FB6F894DEBF0FBEC4
:103C6000CDBFDF91CF911F910F91FF90EF90DF902B
:103C7000CF90BF900C94CC2B27960FB6F894DEBF54
:103C80000FBECDBFDF91CF911F910F91FF90EF90AD
:103C9000DF90CF90BF900C94E32B27960FB6F8944B
:103CA000DEBF0FBECDBFDF91CF911F910F91FF906F
:103CB000EF90DF90CF90BF900C94FF2B27960FB61C
:103CC000F894DEBF0FBECDBFDF91CF911F910F9152
:103CD000FF90EF90DF90CF90BF900C94122C862F26
:103CE00027960FB6F894DEBF0FBECDBFDF91CF9100
:103CF0001F910F91FF90EF90DF90CF90BF900C94A9
:103D0000362C4B2D4F70C80127960FB6F894DEBFA6
:103D10000FBECDBFDF91CF911F910F91FF90EF901C
:103D2000DF90CF90BF900C945F0427960FB6F89465
:103D3000DEBF0FBECDBFDF91CF911F910F91FF90DE
:103D4000EF90DF90CF90BF9008950E947F240E9453
:103D500051240E949B240E9494290E94E82880E01C
:103D600090E00E94A81880E090E00C94BE180E9499
:103D70006F240C94A51E0E949A23292F22952F7040
:103D800030E02C3031054CF42A3031056CF42250EF
:103D900031092230310590F407C02C30310551F043
:103DA0002F30310559F406C0803E10F0803F31F4C9
:103DB00081E0089593FB882780F9089580E00895B5
:103DC000CF93DF9300D000D01F92CDB7DEB70F9016
:103DD0000F900F900F900F90DF91CF910895CF9398
:103DE000DF9300D000D000D0CDB7DEB726960FB657
:103DF000F894DEBF0FBECDBFDF91CF9108951F9322
:103E0000CF93DF93C091E80116E012C0D0E01C9F71
:103E1000F0011D9FF00D1124E854FE4F40815181A7
:103E200062817381848195810E94EF1E2196C77003
:103E30008091E901C813EACFDF91CF911F910895D6
:103E40004091B2015091B3016091B4017091B501FC
:103E50008091B6019091B7010C94EF1E0F931F93C0
:103E6000CF93DF938091B70182958F7009F069C07D
:103E70008091B401882309F464C0A091E801D09135
:103E8000E901B091B201C091B3018091B501909167
:103E9000B60121E030E0BF3F11F020E030E0122F0A
:103EA000BC016095709506E04AC0009721F0CF3FB5
:103EB00029F4212F05C021E030E002C020E030E0ED
:103EC00020FD3BC04A2F50E0049FF001059FF00DFC
:103ED0001124E854FE4F2181C2132FC02081B21358
:103EE0002CC02281211129C0238134812817390750
:103EF00018F0281B390B02C0260F371F283C31054C
:103F0000E0F48091B7018F7080618093B70186E003
:103F1000849FF001859FF00D1124E354FE4F8081B2
:103F20008F708061808382EB91E00E94EF1ADF91B5
:103F3000CF911F910F910C94FF1EAF5FA770AD132F
:103F4000B4CFDF91CF911F910F910895EF92FF921F
:103F50000F931F93CF93DF93CDB7DEB762970FB662
:103F6000F894DEBF0FBECDBF8C0185E0F801DE0105
:103F70001D9601900D928A95E1F7D8014C9111960A
:103F80005C91119712966C9112971396ED90FC909C
:103F900014977091B201E091B3018091B5019091B5
:103FA000B601009739F0EF3F41F421E030E07F3F68
:103FB00031F003C021E030E002C020E030E020FD1D
:103FC0005CC12091B401222309F4F1C0E816F9067E
:103FD00028F09701281B390BC90104C080959095E2
:103FE0008E0D9F1D883C910508F098C08091B70107
:103FF000982F907F09F064C0E51314C0741312C0A9
:10400000611110C08F7080618093B7010E94201FE2
:1040100082EB91E00E94EF1A8091B701D8011596CA
:104020008C9343C1EF2839F05F3F41F481E090E089
:104030004F3F31F003C081E090E002C080E090E0AB
:1040400080FD03C081E0862702C080E090E080FF11
:104050002EC08091E8012091E90136E013C090E084
:10406000389FF001399FF00D1124E854FE4F718103
:10407000571306C07081471303C07281671317C0BE
:10408000019687708213EBCF12C19F7059F088237D
:1040900009F40BC107C09F7029F0F8019581907F4A
:1040A00009F403C1805E883008F4FFC0D2C06623E3
:1040B00009F4FBC08091B70181608093B701F5C01E
:1040C000E51308C0741306C0611104C0D801159629
:1040D0008C939DC04D875E878D859E856A8B0E94DF
:1040E000BB1E6A89882309F4B4C0662309F4B1C0F1
:1040F0002091B701822F82958F7090E002970CF487
:10410000C6C08091B2019091B30198878F831986C0
:10411000FB86EA862C87CE01079646C08091B701C0
:10412000982F907F59F47E2DF98AE88A89890E9418
:10413000E01E82EB91E00E94EF1A95C0E51311C0DA
:1041400074130FC061110DC0F8018583C8010E946E
:10415000EF1AE2EBF1E086E0DF011D928A95E9F7C4
:10416000A2C04D875E878D859E856A8B0E94BB1E8F
:104170006A89882309F46DC0662309F46AC0209116
:10418000B701822F82958F7090E002970CF47FC068
:104190008091B2019091B3019A8389831B82FD8241
:1041A000EC822E83CE0101960E94EF1A70C0E816B1
:1041B000F90628F09701281B390BC90104C0809526
:1041C00090958E0D9F1D883C910508F046C0662392
:1041D00009F43FC0E51330C074132EC02091B7011D
:1041E00020FD21C0322F32953F70832F90E0009741
:1041F000D1F0D80115962C9315970F9741F0832F86
:104200008F5F8295807F2F70282B15962C93C80185
:104210000E94EF1A86E0F801A2EBB1E001900D9246
:104220008A95E1F73EC086E0F801A2EBB1E001908B
:104230000D928A95E1F737C04D875E878D859E8503
:104240000E94BB1E811123C08091B70181608093C1
:10425000B701C8010E94EF1A26C07E2DF98AE88AAC
:1042600089890E94E01EE2EBF1E086E0DF011D9209
:104270008A95E9F70E94201F18C0662351F34D87E5
:104280005E878D859E850E94BB1E882311F386E084
:10429000F801A2EBB1E001900D928A95E1F70E943E
:1042A0002E1F0E94201F81E014C080E012C04D87A5
:1042B0005E878D859E850E949A23292F22952F70D7
:1042C00030E0223031050CF4E0CE243031050CF61C
:1042D000E2CE62960FB6F894DEBF0FBECDBFDF917F
:1042E000CF911F910F91FF90EF9008951F93CF935F
:1042F000DF93CDB7DEB72C970FB6F894DEBF0FBEB5
:10430000CDBF4F83588769877A878B879C87CE017B
:1043100007960E94A61F8823D9F02F8138858A85A9
:104320009B85892B39F03F3F19F080E090E004C075
:104330002F3FD9F781E090E0892B09F06DC04F81C4
:10434000588569857A858B859C850E94EF1E64C09F
:1043500086E0FE013796DE01119601900D928A9556
:10436000E1F7FF81E8854A855B854115510539F004
:10437000EF3F41F481E090E0FF3F31F003C081E086
:1043800090E002C080E090E080FD46C02091E9010D
:1043900030E0C9010196877099276091E80170E0CB
:1043A0008617970709F440C0F983EA835D834C833D
:1043B00096E0929FD001939FB00D1124A854BE4F58
:1043C000FE01319601900D929A95E1F78093E901F3
:1043D0000E94FF1E21C0189FC001112488549E4FC7
:1043E0000E94A61F882371F1E091E8011E9FF00151
:1043F0001124E854FE4F4081518162817381848190
:1044000095810E94EF1E8091E80190E001968770EF
:1044100099278093E80101C016E08091E80190910E
:10442000E9018913D8CF0EC00E94B71E1092E9018E
:104430001092E801E2EBF1E086E0DF011D928A953F
:10444000E9F7EACF2C960FB6F894DEBF0FBECDBFCA
:10445000DF91CF911F910895DF92EF92FF920F931A
:104460001F93CF93DF93EC01009709F46EC0D12C1A
:10447000EE24E394F12C8E010F5F1F4FFE01849117
:10448000843748F4843008F04CC0813071F08230B9
:1044900009F05BC01EC0853709F43FC080F1982F3A
:1044A0009458903708F051C03FC02296F80184918B
:1044B000982F905E983050F48770FE2D01C0FF0F4A
:1044C0008A95EAF78F2F0E94722413C00E94C819A0
:1044D0002FC02296F8018491982F905E983060F456
:1044E0008770FE2D01C0FF0F8A95EAF78F2F0E947B
:1044F00078240E949B241CC00E94901A19C0229606
:10450000F801049107C08FE99FE00197F1F700C01F
:10451000000001500111F7CF0BC02296F801D49092
:1045200007C00E94C81903C08F770E94901AE80143
:104530008D2D07C08150EFE9FFE03197F1F700C002
:104540000000882309F497CFF5CFDF91CF911F9119
:104550000F91FF90EF90DF9008956093EE017093BC
:10456000EF018093F0019093F1010C94A51E6093EC
:10457000EA017093EB018093EC019093ED010C94B0
:10458000A51E08950C94AD220F931F930091EE0188
:104590001091EF012091F0013091F101602B712B0E
:1045A000822B932B1F910F910C94AD220F931F938D
:1045B0000091EE011091EF012091F0013091F10195
:1045C00060237123822393231F910F910C94AD22BA
:1045D0000F931F930091EE011091EF012091F001D4
:1045E0003091F10160277127822793271F910F9146
:1045F0000C94AD2260E070E0CB010C94B72241E056
:1046000050E060E070E004C0440F551F661F771F44
:104610008A95D2F7CB01BA010C94B72241E050E061
:1046200060E070E004C0440F551F661F771F8A9535
:10463000D2F78091EA019091EB01A091EC01B09149
:10464000ED01482B592B6A2B7B2BCB01BA010C9423
:10465000B72241E050E060E070E004C0440F551F15
:10466000661F771F8A95D2F7409550956095709593
:104670008091EA019091EB01A091EC01B091ED01E4
:10468000482359236A237B23CB01BA010C94B72218
:1046900041E050E060E070E004C0440F551F661F29
:1046A000771F8A95D2F78091EA019091EB01A09152
:1046B000EC01B091ED01482759276A277B27CB01F0
:1046C000BA010C94B7220F931F930091EA01109145
:1046D000EB012091EC013091ED01602B712B822BCD
:1046E000932B1F910F910C94B7220F931F9300915E
:1046F000EA011091EB012091EC013091ED01602372
:104700007123822393231F910F910C94B7220F934F
:104710001F930091EA011091EB012091EC0130917F
:10472000ED0160277127822793271F910F910C9429
:10473000B7220895CF92DF92EF92FF920F931F93CB
:10474000CF93DF93EC01C090EE01D090EF01E090A9
:10475000F001F090F1018091EA019091EB01A091BC
:10476000EC01B091ED01C82AD92AEA2AFB2A0FE10F
:1047700010E0B701A601002E04C076956795579505
:1047800047950A94D2F740FF08C0BE01802F0E94CF
:10479000740C8130910509F007C00150110948F7E8
:1047A000BE0180E00E94740CDF91CF911F910F91A8
:1047B000FF90EF90DF90CF90089590910D01992395
:1047C000D9F090910E019923B9F0982F969596956E
:1047D00096959F3090F5E0910F01F0911001E90F4F
:1047E000F11D877021E030E001C0220F8A95EAF7C1
:1047F0008181822B8183089540910F015091100196
:1048000020E030E09FEFFA01E20FF31F62816817AA
:10481000A1F09F3F19F4611101C0922F2F5F3F4F0C
:104820002E30310581F707C0FA01E90FF11D97FD20
:10483000FA95828308959F3FB9F7089590910D01ED
:104840009923E1F090910E019923C1F0982F96954C
:10485000969596959F3020F5E0910F01F09110010B
:10486000E90FF11D877021E030E001C0220F8A9529
:10487000EAF72095818128232183089540910F0133
:104880005091100120E030E0FA01E20FF31F928115
:10489000981301C012822F5F3F4F2E303105A1F7D0
:1048A000089581E090E0E0910F01F0911001E80F90
:1048B000F91F1082019680319105A9F70895809122
:1048C000F20108959091F201982B9093F2010895CE
:1048D00080959091F20198239093F201089510929F
:1048E000F20108959091F301982B9093F3010895AC
:1048F00080959091F30198239093F301089510927D
:10490000F30108958093F40108951092F40108953D
:1049100040910F015091100120E030E080E0FA0159
:10492000E20FF31F918191118F5F2F5F3F4F2F3067
:104930003105A9F70895E0910F01F09110018091E0
:10494000F2018083E0910F01F0911001808190913C
:10495000F301892B80839091F401992361F0E09118
:104960000F01F09110018081892B80830E9488249F
:1049700081110E94852480910F01909110010C9467
:10498000921880913C02843009F11092060220E4D2
:1049900088E190E00FB6F894A895809360000FBE70
:1049A0002093600083B7817F846083BF83B7816079
:1049B00083BF7894889583B78E7F83BF88E10FB6D5
:1049C000F89480936000109260000FBE08950895DF
:1049D0000895CF930E94E7240E94B10F0E94E8241B
:1049E000C0E08C2F0E940511892B29F4CF5FC530C0
:1049F000C1F780E001C081E0CF9108950E94B71E09
:104A00000C94BB2B1F920F920FB60F9211248F9311
:104A10009F93AF93BF9380910602811113C0809141
:104A2000070290910802A0910902B0910A024196F2
:104A3000A11DB11D8093070290930802A093090263
:104A4000B0930A02BF91AF919F918F910F900FBECB
:104A50000F901F90189582E084BD93E095BD9AEF6A
:104A600097BD80936E0008958FB7F8944091070228
:104A7000509108026091090270910A028FBFCA0129
:104A80000895CF92DF92EF92FF920F931F932FB76B
:104A9000F8944091070250910802609109027091C8
:104AA0000A022FBF6A017B01EE24FF248C0120E063
:104AB00030E0C016D106E206F30620F09A01281B6A
:104AC000390B05C09C0120953095240F351FC90175
:104AD0001F910F91FF90EF90DF90CF9008951F925C
:104AE0000F920FB60F9211248F939F93AF93BF93A2
:104AF0008091070290910802A0910902B0910A02E8
:104B00000196A11DB11D8093070290930802A09306
:104B10000902B0930A02BF91AF919F918F910F90BC
:104B20000FBE0F901F9018950E946A15F8942FEFF2
:104B300087EA91E6215080409040E1F700C00000F4
:104B400087E090EBDC018093460290934702A093AC
:104B50004802B09349022CE088E190E00FB6F89447
:104B6000A895809360000FBE20936000FFCFCF9286
:104B7000DF92EF92FF920F931F93CF93DF93C82E94
:104B8000D12C01E010E08D2D0E9405117C01C0E0C8
:104B9000D0E098010C2E02C0220F331F0A94E2F7D6
:104BA0002E213F21232B29F42196CE30D10589F7E0
:104BB00008C06C2F7D2D80E00E944F0CC812F4CFEE
:104BC00006C0D39485E0D812DECF80E001C081E03A
:104BD000DF91CF911F910F91FF90EF90DF90CF90D9
:104BE0000895CF93C82F8CE20E94B725882321F027
:104BF0008C2FCF910C94B72580E0CF910895CF935F
:104C00000E944927811102C00E942A27C5E608C0D8
:104C10000E94B10F8FE39CE90197F1F700C00000FB
:104C2000C150B1F789E20E94F125811111C18AE2D8
:104C30000E94F12581110E942A2785E00E94F1251A
:104C400081110E9494250E9454278093050287E0D9
:104C50000E94F125882399F18BE10E94F125882398
:104C600051F09091050291FB882780F921E082277D
:104C700080FB91F922C08EE00E94F125882351F03B
:104C80009091050292FB882780F921E0822780FB22
:104C900092F913C080E10E94F125909105028823CA
:104CA00041F093FB882780F921E0822780FB93F96C
:104CB00004C0892F809580FB90F990930502809124
:104CC00005020E9458270E9466278093160280EEF4
:104CD0000E94F125882341F080911602982F90952B
:104CE00090FB80F98093160289E30E94F1258823C6
:104CF00059F09091160291FB882780F921E08227D4
:104D000080FB91F99093160282EE0E94F125882390
:104D100059F09091160292FB882780F921E08227B2
:104D200080FB92F99093160286EE0E94F12588236B
:104D300059F09091160293FB882780F921E0822791
:104D400080FB93F99093160283EE0E94F12588234D
:104D500059F09091160294FB882780F921E0822770
:104D600080FB94F99093160285E30E94F125882335
:104D700059F09091160295FB882780F921E082274F
:104D800080FB95F99093160281E30E94F125882318
:104D900059F09091160296FB882780F921E082272E
:104DA00080FB96F99093160281E10E94F1258823F9
:104DB00059F09091160297FB882780F921E082270D
:104DC00080FB97F990931602809116020E946A2741
:104DD0008091160287FB882780F980930E0187E275
:104DE0000E94F125C82F8EE10E94F1258111C26039
:104DF0008FE10E94F1258111C46080E20E94F125BB
:104E00008111C86081E20E94F1258111C06182E2B6
:104E10000E94F1258111C06283E20E94F125811177
:104E2000C06484E20E94F125882311F0C06802C0AA
:104E3000CC2329F08C2F0E9461276C2F03C00E9485
:104E40005D27682F70E080E090E0CF910C94C22243
:104E5000CF9108956DEE7EEF80E090E00E94D22D1C
:104E600060E082E090E00E94BC2D60E083E090E092
:104E70000E94BC2D60E084E090E00E94BC2D60E0C8
:104E800085E090E00E94BC2D60E086E090E00C940C
:104E9000BC2D80E090E00E94B62D21E08D3E9E4F1B
:104EA00009F020E0822F089582E090E00C94A82D74
:104EB000682F82E090E00C94BC2D83E090E00C948D
:104EC000A82D682F83E090E00C94BC2D84E090E046
:104ED0000C94A82D682F84E090E00C94BC2D86E003
:104EE00090E00C94A82D682F86E090E00C94BC2DE7
:104EF0008091130280FF0BC06091140185E0689FD0
:104F0000B001112475956795759567952AC081FF45
:104F100009C06091140185E0689FB0011124759566
:104F200067951FC082FF07C06091140185E0689FEC
:104F3000B001112416C040910D024423C9F06091C4
:104F40001301461788F72091140185E0289F9001EE
:104F50001124429FC001439F900D112470E00E94D4
:104F6000942D6038710540F46115710539F002C067
:104F700065E070E0862F08958FE7089581E0089539
:104F80008091130280FF08C06091120170E0759556
:104F900067957595679521C081FF06C060911201E4
:104FA00070E07595679519C082FF04C06091120189
:104FB00070E010C080910D028823C1F06091110152
:104FC0008617A0F790911201989FC001112470E0FC
:104FD0000E94942D6038710528F46115710521F047
:104FE000862F08958FE7089581E0089561E070E0CD
:104FF000F4CF803F21F40E947827819504C0813F3F
:1050000029F40E947827809310020895823F21F4AA
:105010000E947827819504C0833F29F40E94782755
:1050200080930F020895893F19F40E94C02705C09C
:105030008A3F31F40E94C027819580931102089520
:105040008B3F21F40E94C027819504C08C3F29F436
:105050000E94C027809312020895843F21F480911A
:105060000E02816017C0853F21F480910E0282609C
:1050700011C0863F21F480910E0284600BC0873FEF
:1050800021F480910E02886005C0883F31F4809140
:105090000E02806180930E0208958D3F21F480916D
:1050A000130281600BC08E3F21F480911302826055
:1050B00005C08F3F29F4809113028460809313020E
:1050C0000895803F29F48091100287FF6EC007C0C9
:1050D000813F41F48091100218160CF066C01092C6
:1050E000100263C090910F02823F19F497FF5DC0D8
:1050F00005C0833F31F419160CF057C010920F020F
:1051000054C0893F31F48091110218160CF04DC043
:1051100006C08A3F39F48091110287FF46C0109281
:10512000110243C08B3F29F48091120287FF3DC0DA
:1051300006C08C3F39F4809112021816B4F5109213
:10514000120233C0843F21F480910E028E7F05C08D
:10515000853F31F480910E028D7F80930E0225C031
:10516000863F21F480910E028B7FF7CF873F21F499
:1051700080910E02877FF1CF883F21F480910E024B
:105180008F7EEBCF8D3F21F4809113028E7F0BC079
:105190008E3F21F4809113028D7F05C08F3F29F44B
:1051A000809113028B7F8093130280910F028111F3
:1051B0000EC08091100281110AC0809111028111EC
:1051C00006C080911202811102C010920D02089552
:1051D0008EE092E00E949D180E94342590930C026C
:1051E00080930B020895CF9380910B0290910C0253
:1051F0000E94412540910D02442321F02091150188
:1052000030E006C0209116015AE0259F900111243C
:105210008217930708F486C080910F0281110DC098
:1052200090911002911109C090911102911105C045
:1052300090911202992309F475C04F3F19F04F5F06
:1052400040930D02181624F40E94782780930F02D1
:1052500080910F0287FF05C00E9478278195809377
:105260000F0280911002181624F40E947827809370
:1052700010028091100287FF05C00E947827819557
:105280008093100260910F02662339F1C0911002E1
:10529000CC2319F1772767FD7095872F972F0E94F0
:1052A000852C23E333E343E35FE30E94E92C0E9470
:1052B000522C60930F026C2F772767FD7095872F14
:1052C000972F0E94852C23E333E343E35FE30E949F
:1052D000E92C0E94522C6093100280911102181642
:1052E00024F40E94C027809311028091110287FF4D
:1052F00005C00E94C02781958093110280911202FF
:10530000181624F40E94C027809312028091120282
:1053100087FF05C00E94C027819580931202CF911C
:105320000C94E828CF910895EEE0F2E085E0DF01EB
:105330001D928A95E9F710920D02109213020895BA
:10534000833089F130F4813061F0823009F06EC031
:1053500019C0853009F449C0B8F1863009F066C03B
:1053600055C020911601862F90E0820F911D8F3F2E
:10537000910520F4620F6093160108958FEF8093DA
:105380001601089520911501862F90E0820F911D3E
:105390008F3F910520F4620F6093150108958FEF00
:1053A00080931501089520911401862F90E0820FBB
:1053B000911D8F3F910520F4620F609314010895B1
:1053C0008FEF80931401089520911301862F90E0B0
:1053D000820F911D8F3F910520F4620F609313019E
:1053E00008958FEF80931301089520911201862F65
:1053F00090E0820F911D8F3F910520F4620F609322
:10540000120108958FEF80931201089520911101E8
:10541000862F90E0820F911D8F3F910520F4620F3F
:105420006093110108958FEF8093110108958330E7
:1054300021F130F4813059F0823009F049C012C0B6
:10544000853089F128F1863009F042C037C080915B
:105450001601681720F4861B809316010895109298
:105460001601089580911501681720F4861B80931A
:10547000150108951092150108958091140168177F
:1054800020F4861B8093140108951092140108954E
:1054900080911301681720F4861B809313010895EF
:1054A00010921301089580911201681720F4861B51
:1054B00080931201089510921201089580911101B4
:1054C000681720F4861B8093110108951092110132
:1054D000089541E050E060E070E004C0440F551FC3
:1054E000661F771F8A95D2F7CB01BA010E94C222AC
:1054F0000C94B71E8B3109F465C0E8F48E3009F4C2
:105500006BC060F4873009F452C018F4863071F52E
:1055100036C0883069F18B3049F589C0813109F492
:1055200076C018F4803111F561C0863109F47FC06E
:105530008931E1F47CC0853309F472C050F48732BC
:1055400009F46EC018F48E3188F06CC0893271F4A1
:1055500067C0833430F48A3308F066C0883331F48E
:1055600066C0833409F45CC0883499F080E0089503
:105570000E9454270E9466270E946F2758C080917E
:105580000502817F8E7F8093050281E08093140263
:1055900008950E94B71E2FEF83ED90E321508040C5
:1055A0009040E1F700C000000E94942540C0809127
:1055B000050280FF03C0817F8E7F01C081608093E0
:1055C000050235C09091050291FB882780F921E002
:1055D000822780FB91F913C09091050292FB8827E6
:1055E00080F921E0822780FB92F909C090910502A1
:1055F00093FB882780F921E0822780FB93F9909321
:1056000005028823A1F091609093050210C00E94CA
:10561000B71E80910E0191E0892780930E0107C08B
:1056200080E003C08D5101C089530E94692A81E046
:10563000089580E0089580E00895CF93C82F809169
:105640001402813071F020F0823009F089C037C037
:10565000A0910F01B09110018C91823209F082C0AB
:1056600007C0A0910F01B09110018C91823249F4D2
:105670008C2F0E94192B81111EC08C2F0E947A2A18
:105680001CC08C2F0E941B2B811115C0C43169F0E6
:1056900030F4CB3081F0C03109F068C009C0C932A4
:1056A00021F0C83309F062C006C0109214025EC037
:1056B00082E08093140281E090E081705AC0C93288
:1056C000C9F060F4C431B1F020F4C73009F04CC027
:1056D00034C0CE51C63008F047C017C0CE3439F1BF
:1056E00020F4CB3409F040C01CC0C135C1F0C23534
:1056F000D9F513C080911502882319F01092150274
:1057000033C081E08093140234C0EC2FF0E0EA5AF9
:10571000FE4F80818093150227C061E003C061E0E5
:1057200007C06AE0809115020E94A0291DC06AE0AE
:10573000809115020E94172A17C08EE180931601EE
:1057400082E3809315018AE08093140184E18093C1
:10575000130188E08093120188E28093110104C054
:105760001092140280E005C081E003C080E090E068
:10577000A4CFCF9108950E944927811102C00E94B1
:105780002A270E946F278093450280FF02C08695DA
:1057900001C080E00C943A0580914502982F9695BF
:1057A000292F30E0253031054CF49F5F990F81702F
:1057B000892B8160809345020E9473278091450266
:1057C00086950C943A0580914502982F969591F014
:1057D0009158990F8170892B809345028E7F91E0BB
:1057E00009F490E08091450290FB80F98093450296
:1057F0000E9473278091450286950C943A0580910A
:105800004502982F909590FB80F9809345020E9465
:1058100073278091450280FF02C0869501C080E019
:105820000C943A0530914502232F26952F5F2F7750
:10583000822F90E0317006972CF4220F232B2093B7
:10584000450202C03093450280914502282F2E7FE9
:1058500091E009F490E090FB80F9809345020E946A
:1058600073278091450286950C943A052091450254
:10587000922F96959827990F822F8170892B80936C
:1058800045028E7F91E009F490E08091450290FB03
:1058900080F9809345020E94732780914502869586
:1058A0000C943A0504D06894B1118DC0089570D05D
:1058B00088F09F5790F0B92F9927B751A0F0D1F0F9
:1058C000660F771F881F991F1AF0BA95C9F712C083
:1058D000B13081F077D0B1E0089574C0672F782F90
:1058E0008827B85F39F0B93FCCF3869577956795EF
:1058F000B395D9F73EF490958095709561957F4F5B
:105900008F4F9F4F0895E89409C097FB3EF4909500
:105910008095709561957F4F8F4F9F4F9923A9F088
:10592000F92F96E9BB279395F69587957795679517
:10593000B795F111F8CFFAF4BB0F11F460FF1BC05B
:105940006F5F7F4F8F4F9F4F16C0882311F096E9EE
:1059500011C0772321F09EE8872F762F05C066239C
:1059600071F096E8862F70E060E02AF09A95660F55
:10597000771F881FDAF7880F9695879597F908950E
:1059800057FD9058440F551F59F05F3F71F04795F0
:10599000880F97FB991F61F09F3F79F087950895D5
:1059A000121613061406551FF2CF4695F1DF08C0F4
:1059B000161617061806991FF1CF86957105610511
:1059C00008940895E894BB2766277727CB0197F9B9
:1059D00008950BD078C069D028F06ED018F09523C8
:1059E00009F05AC05FC01124EECFCADFA0F3959F23
:1059F000D1F3950F50E0551F629FF001729FBB27B6
:105A0000F00DB11D639FAA27F00DB11DAA1F649F61
:105A10006627B00DA11D661F829F2227B00DA11D14
:105A2000621F739FB00DA11D621F839FA00D611D9A
:105A3000221F749F3327A00D611D231F849F600DBB
:105A4000211D822F762F6A2F11249F5750408AF0F4
:105A5000E1F088234AF0EE0FFF1FBB1F661F771F80
:105A6000881F91505040A9F79E3F510570F014C017
:105A7000AACF5F3FECF3983EDCF386957795679568
:105A8000B795F795E7959F5FC1F7FE2B880F911D9E
:105A90009695879597F9089597F99F6780E870E044
:105AA00060E008959FEF80EC089500240A94161694
:105AB000170618060906089500240A9412161306FC
:105AC000140605060895092E0394000C11F488238A
:105AD00052F0BB0F40F4BF2B11F460FF04C06F5FA6
